:020000040000FA
:1020000070EF3FF0FFFFFFFF1000FFFFFFFFFFFF3C
:10201000FFFFFFFFFFFFFFFF1000FFFFFFFFFFFFBE
:10202000FFFFFFFFFFFFFFFFFFFFFFFFFFFFFFFFC0
:10203000FFFFFFFFFFFFFFFFFFFFFFFFFFFFFFFFB0
:107EC000110E006ECC0E016E720E026E022E66EF67
:107ED0003FF0012E64EF3FF0002E62EF3FF0120002
:107EE000700ED36E936A0D0E036F03C08AFF60ECB1
:107EF0003FF060EC3FF0033603C08AFF77EF3FF0BE
:020000040030CA
:0800000023280E3CFFD181FF13
:020000040020DA
:080000000509070A00000000D9
:00000001FF
